{
  "contractName": "DocumentHash",
  "abi": [
    {
      "constant": true,
      "inputs": [],
      "name": "documentHash",
      "outputs": [
        {
          "internalType": "string",
          "name": "",
          "type": "string"
        }
      ],
      "payable": false,
      "stateMutability": "view",
      "type": "function"
    },
    {
      "constant": false,
      "inputs": [
        {
          "internalType": "string",
          "name": "hash",
          "type": "string"
        }
      ],
      "name": "setDocumentHash",
      "outputs": [],
      "payable": false,
      "stateMutability": "nonpayable",
      "type": "function"
    },
    {
      "constant": true,
      "inputs": [],
      "name": "getDocumentHash",
      "outputs": [
        {
          "internalType": "string",
          "name": "",
          "type": "string"
        }
      ],
      "payable": false,
      "stateMutability": "view",
      "type": "function"
    }
  ],
  "bytecode": "0x608060405234801561001057600080fd5b5061062c806100206000396000f3fe608060405234801561001057600080fd5b50600436106100415760003560e01c80632aa85c75146100465780632b43da3a146100c9578063797bec7714610184575b600080fd5b61004e610207565b6040518080602001828103825283818151815260200191508051906020019080838360005b8381101561008e578082015181840152602081019050610073565b50505050905090810190601f1680156100bb5780820380516001836020036101000a031916815260200191505b509250505060405180910390f35b610182600480360360208110156100df57600080fd5b81019080803590602001906401000000008111156100fc57600080fd5b82018360208201111561010e57600080fd5b8035906020019184600183028401116401000000008311171561013057600080fd5b91908080601f016020809104026020016040519081016040528093929190818152602001838380828437600081840152601f19601f8201169050808301925050505050505091929192905050506102a9565b005b61018c6104b4565b6040518080602001828103825283818151815260200191508051906020019080838360005b838110156101cc5780820151818401526020810190506101b1565b50505050905090810190601f1680156101f95780820380516001836020036101000a031916815260200191505b509250505060405180910390f35b606060008054600181600116156101000203166002900480601f01602080910402602001604051908101604052809291908181526020018280546001816001161561010002031660029004801561029f5780601f106102745761010080835404028352916020019161029f565b820191906000526020600020905b81548152906001019060200180831161028257829003601f168201915b5050505050905090565b6000815111610320576040517f08c379a000000000000000000000000000000000000000000000000000000000815260040180806020018281038252600b8152602001807f456d70747920686173682100000000000000000000000000000000000000000081525060200191505060405180910390fd5b60006001826040518082805190602001908083835b602083106103585780518252602082019150602081019050602083039250610335565b6001836020036101000a038019825116818451168082178552505050505050905001915050908152602001604051809103902080546001816001161561010002031660029004905014610413576040517f08c379a00000000000000000000000000000000000000000000000000000000081526004018080602001828103825260178152602001807f4861736820616c7265616479207265676973746572656400000000000000000081525060200191505060405180910390fd5b8060009080519060200190610429929190610552565b508060016000604051808280546001816001161561010002031660029004801561048a5780601f1061046857610100808354040283529182019161048a565b820191906000526020600020905b815481529060010190602001808311610476575b5050915050908152602001604051809103902090805190602001906104b0929190610552565b5050565b60008054600181600116156101000203166002900480601f01602080910402602001604051908101604052809291908181526020018280546001816001161561010002031660029004801561054a5780601f1061051f5761010080835404028352916020019161054a565b820191906000526020600020905b81548152906001019060200180831161052d57829003601f168201915b505050505081565b828054600181600116156101000203166002900490600052602060002090601f016020900481019282601f1061059357805160ff19168380011785556105c1565b828001600101855582156105c1579182015b828111156105c05782518255916020019190600101906105a5565b5b5090506105ce91906105d2565b5090565b6105f491905b808211156105f05760008160009055506001016105d8565b5090565b9056fea265627a7a72315820bc239941d1e8128e85ced7831c3acf0c1b16578a8f19c11a5704c1e5c959c15964736f6c63430005100032",
  "source": "pragma solidity ^0.5.16;\n\ncontract DocumentHash{\n\n    string public documentHash;\n    mapping (string => string) hashAlreadyRegistered;\n        \n    function setDocumentHash(string memory hash) public {\n        require(bytes(hash).length  > 0, \"Empty hash!\");\n        require(bytes(hashAlreadyRegistered[hash]).length  == 0, \"Hash already registered\");\n        \n        documentHash = hash;\n        hashAlreadyRegistered[documentHash] = hash;\n    }\n \n    function getDocumentHash() public view returns(string memory) {\n        return documentHash;\n    }\n}",
  "sourcePath": "/home/rrs/Documents/vscode/FullFinalPaper/backend/src/smartContract/contracts/DocumentHash.sol",
  "compiler": {
    "name": "solc",
    "version": "0.5.16+commit.9c3226ce.Emscripten.clang"
  },
  "schemaVersion": "3.1.0",
  "updatedAt": "2020-06-25T02:20:55.529Z",
  "networkType": "ethereum",
  "devdoc": {
    "methods": {}
  },
  "userdoc": {
    "methods": {}
  }
}