{
  "contractName": "DocumentHash",
  "abi": [
    {
      "constant": true,
      "inputs": [],
      "name": "documentHash",
      "outputs": [
        {
          "internalType": "string",
          "name": "",
          "type": "string"
        }
      ],
      "payable": false,
      "stateMutability": "view",
      "type": "function"
    },
    {
      "constant": false,
      "inputs": [
        {
          "internalType": "string",
          "name": "hash",
          "type": "string"
        }
      ],
      "name": "setDocumentHash",
      "outputs": [],
      "payable": false,
      "stateMutability": "nonpayable",
      "type": "function"
    },
    {
      "constant": true,
      "inputs": [],
      "name": "getDocumentHash",
      "outputs": [
        {
          "internalType": "string",
          "name": "",
          "type": "string"
        }
      ],
      "payable": false,
      "stateMutability": "view",
      "type": "function"
    }
  ],
  "bytecode": "0x608060405234801561001057600080fd5b5061079b806100206000396000f3fe608060405234801561001057600080fd5b50600436106100415760003560e01c80632aa85c75146100465780632b43da3a146100c9578063797bec7714610184575b600080fd5b61004e610207565b6040518080602001828103825283818151815260200191508051906020019080838360005b8381101561008e578082015181840152602081019050610073565b50505050905090810190601f1680156100bb5780820380516001836020036101000a031916815260200191505b509250505060405180910390f35b610182600480360360208110156100df57600080fd5b81019080803590602001906401000000008111156100fc57600080fd5b82018360208201111561010e57600080fd5b8035906020019184600183028401116401000000008311171561013057600080fd5b91908080601f016020809104026020016040519081016040528093929190818152602001838380828437600081840152601f19601f8201169050808301925050505050505091929192905050506102a9565b005b61018c610623565b6040518080602001828103825283818151815260200191508051906020019080838360005b838110156101cc5780820151818401526020810190506101b1565b50505050905090810190601f1680156101f95780820380516001836020036101000a031916815260200191505b509250505060405180910390f35b606060008054600181600116156101000203166002900480601f01602080910402602001604051908101604052809291908181526020018280546001816001161561010002031660029004801561029f5780601f106102745761010080835404028352916020019161029f565b820191906000526020600020905b81548152906001019060200180831161028257829003601f168201915b5050505050905090565b806040516020018082805190602001908083835b602083106102e057805182526020820191506020810190506020830392506102bd565b6001836020036101000a038019825116818451168082178552505050505050905001915050604051602081830303815290604052805190602001206040516020018060000190506040516020818303038152906040528051906020012014156103b1576040517f08c379a000000000000000000000000000000000000000000000000000000000815260040180806020018281038252600b8152602001807f456d70747920686173682100000000000000000000000000000000000000000081525060200191505060405180910390fd5b806040516020018082805190602001908083835b602083106103e857805182526020820191506020810190506020830392506103c5565b6001836020036101000a038019825116818451168082178552505050505050905001915050604051602081830303815290604052805190602001206001600060405180828054600181600116156101000203166002900480156104825780601f10610460576101008083540402835291820191610482565b820191906000526020600020905b81548152906001019060200180831161046e575b5050915050908152602001604051809103902060405160200180828054600181600116156101000203166002900480156104f35780601f106104d15761010080835404028352918201916104f3565b820191906000526020600020905b8154815290600101906020018083116104df575b5050915050604051602081830303815290604052805190602001201415610582576040517f08c379a00000000000000000000000000000000000000000000000000000000081526004018080602001828103825260178152602001807f4861736820616c7265616479207265676973746572656400000000000000000081525060200191505060405180910390fd5b80600090805190602001906105989291906106c1565b50806001600060405180828054600181600116156101000203166002900480156105f95780601f106105d75761010080835404028352918201916105f9565b820191906000526020600020905b8154815290600101906020018083116105e5575b50509150509081526020016040518091039020908051906020019061061f9291906106c1565b5050565b60008054600181600116156101000203166002900480601f0160208091040260200160405190810160405280929190818152602001828054600181600116156101000203166002900480156106b95780601f1061068e576101008083540402835291602001916106b9565b820191906000526020600020905b81548152906001019060200180831161069c57829003601f168201915b505050505081565b828054600181600116156101000203166002900490600052602060002090601f016020900481019282601f1061070257805160ff1916838001178555610730565b82800160010185558215610730579182015b8281111561072f578251825591602001919060010190610714565b5b50905061073d9190610741565b5090565b61076391905b8082111561075f576000816000905550600101610747565b5090565b9056fea265627a7a72315820ebbbb78fc504c5b34c30328614647597ad1734b561816dc577a38639863bac6764736f6c63430005100032",
  "source": "pragma solidity ^0.5.16;\n\ncontract DocumentHash{\n\n    string public documentHash;\n    mapping (string => string) hashAlreadyRegistered;\n        \n    function setDocumentHash(string memory hash) public {\n        require(keccak256( abi.encodePacked((\"\"))) != keccak256(abi.encodePacked((hash))), \"Empty hash!\");\n        require(keccak256( abi.encodePacked((hashAlreadyRegistered[documentHash]))) != keccak256(abi.encodePacked((hash))), \"Hash already registered\");\n        \n        documentHash = hash;\n        hashAlreadyRegistered[documentHash] = hash;\n    }\n \n    function getDocumentHash() public view returns(string memory) {\n        return documentHash;\n    }\n}",
  "sourcePath": "/home/rrs/Documents/vscode/tcc/smartContract/contracts/DocumentHash.sol",
  "compiler": {
    "name": "solc",
    "version": "0.5.16+commit.9c3226ce.Emscripten.clang"
  },
  "schemaVersion": "3.1.0",
  "updatedAt": "2020-05-17T04:45:03.751Z",
  "networkType": "ethereum",
  "devdoc": {
    "methods": {}
  },
  "userdoc": {
    "methods": {}
  }
}